:100000000C942A000C9447000C9447000C94470071
:100010000C9447000C9447000C9447000C94470044
:100020000C9447000C9447000C9447000C94470034
:100030000C9447000C9447000C9447000C94470024
:100040000C9447000C9447000C9447000C94470014
:100050000C94470011241FBECFE5D8E0DEBFCDBF12
:1000600010E0A0E6B0E0ECE3F9E002C005900D92EC
:10007000A03DB107D9F720E0A0EDB0E001C01D928E
:10008000A53DB207E1F70E94C4000C949C040C94B7
:10009000000085BB88E082BB87EC90E00197F1F718
:1000A00000C0000081E082BB8FE39FE10197F1F780
:1000B00000C00000089585BB8CE082BB87EC90E017
:1000C0000197F1F700C0000085E082BB8FE39FE15C
:1000D0000197F1F700C000000895CF93DF93EC0182
:1000E00003C00E945B00219688818111FACFDF91C5
:1000F000CF9108955F9BFECF8CB108955D9BFECF9D
:100100008CB908951F93CF93DF9380EC0E94490030
:10011000C0E0D0E00DC00E947A00182F0E947E003F
:10012000812F0E945B00FE01E053FF4F1083219658
:10013000C430D10584F31092D40080ED90E0DF91BB
:10014000CF911F91089581B3806281BB82E88FBDFA
:100150008AE18EBD8FE19EE497BD86BD089500972C
:1001600021F08A35910531F00AC088EE93E09BBDFD
:100170008ABD08958CED95E09BBD8ABD089588EEFB
:1001800093E09BBD8ABD0895CF93DF93CDB7DEB7D3
:1001900060970FB6F894DEBF0FBECDBF8EEF8ABB5F
:1001A0009FEF94BB81BB88E18AB986E880BD83E379
:1001B00089B90E94A30088E30E94490081E00E945F
:1001C000490086E00E9449008FE00E944900C899DA
:1001D000FECF81E00E94490080E80E9449008CE740
:1001E00090E00E946D000E9482007C0100E010E01F
:1001F00012C0B801660F771F660F771F660F771F53
:10020000601B710B605A7F4FC7010E94A901892BA7
:1002100039F00F5F1F4F043011055CF30FEF1FEF34
:100220000F3F2FEF120709F47AC0F801EE0FFF1FFE
:10023000EE0FFF1FEE0FFF1FE01BF10BE05AFF4F09
:10024000258136812A3031050CF448C08F017F01A9
:1002500055E0E50EF11C2A5031093683258381E0F3
:100260000E94490080E80E9449008AE890E00E94CC
:100270006D0080EC0E944900F70181818F93F801A5
:1002800085818F9384E990E09F938F938E010F5F18
:100290001F4F1F930F930E94B201C8010E946D006F
:1002A0008BB388608BBB8AE590E00E94AF00FFEFC4
:1002B00023ED40E3F15020404040E1F700C0000052
:1002C00080E090E00E94AF008BB3877F8BBB0F90E4
:1002D0000F900F900F900F900F9079CF81E00E94B8
:1002E000490080E80E9449008FE990E00E946D007B
:1002F00080EC0E9449008CEA90E00E946D008BB374
:1003000084608BBB5FEF83ED90E351508040904061
:10031000E1F700C000008BB38B7F8BBB58CF81E02F
:100320000E94490080EC0E9449008DEB90E00E9401
:100330006D008BB384608BBBEFEFF3ED20E3E150F6
:10034000F0402040E1F700C000008BB38B7F8BBBF7
:100350003ECFFB01DC018D91019080190110D9F392
:10036000990B0895AEE0B0E0E8EBF1E00C94730473
:100370000D891E8986E08C831A8309838FEF9FE79E
:100380009E838D83AE01475E5F4F6F89788DCE016E
:1003900001960E94D401EF81F885E00FF11F1082D1
:1003A0002E96E4E00C948F04ABE0B0E0EAEDF1E0CF
:1003B0000C9465046C017B018A01FC011782168292
:1003C000838181FFCCC1CE0101963C01F60193816E
:1003D000F70193FD859193FF81917F01882309F4B3
:1003E000BAC1853239F493FD859193FF81917F01E4
:1003F000853229F4B60190E00E94CB03E7CF912C1F
:10040000212C312CFFE1F315D8F08B3279F038F440
:10041000803279F08332A1F4232D20611DC08D320A
:1004200061F0803369F4232D216016C0832D826032
:10043000382EE32DE4603E2E2AC0F32DF8601DC057
:1004400037FC2DC020ED280F2A3040F08E32B9F451
:1004500036FC81C1232D2064322E19C036FE06C021
:100460008AE0989E200D1124922E11C0EAE02E9E63
:10047000200D1124222EF32DF0623F2E08C08C3661
:1004800021F4832D8068382E02C0883641F4F701AC
:1004900093FD859193FF81917F018111B3CF982FB7
:1004A0009F7D9554933028F40C5F1F4F9FE39983F1
:1004B0000DC0833631F0833771F0833509F059C0B0
:1004C00021C0F801808189830E5F1F4F88248394A7
:1004D000912C530113C02801F2E04F0E511CF8017A
:1004E000A080B18036FE03C0692D70E002C06FEFBE
:1004F0007FEFC5010E94C0034C018201F32DFF77FD
:100500003F2E16C0280122E0420E511CF801A080A7
:10051000B18036FE03C0692D70E002C06FEF7FEF3F
:10052000C5010E94B5034C01F32DF0683F2E8201F6
:1005300033FC1BC0822D90E088169906B0F4B601FA
:1005400080E290E00E94CB032A94F4CFF50137FCBF
:10055000859137FE81915F01B60190E00E94CB0347
:1005600021102A9421E0821A91088114910471F7D4
:10057000E8C0843611F0893641F5F80137FE07C02E
:1005800060817181828193810C5F1F4F08C06081FF
:100590007181072E000C880B990B0E5F1F4FF32DF6
:1005A000FF763F2E97FF09C09095809570956195D5
:1005B0007F4F8F4F9F4FF0683F2E2AE030E0A3011E
:1005C0000E940704882E861845C0853731F4232DF4
:1005D0002F7EB22E2AE030E025C0932D997FB92ED0
:1005E0008F36C1F018F4883579F0B5C0803719F02E
:1005F000883721F0B0C0E92FE061BE2EB4FE0DC0F7
:10060000FB2DF460BF2E09C034FE0AC0292F2660DE
:10061000B22E06C028E030E005C020E130E002C084
:1006200020E132E0F801B7FE07C06081718182816C
:1006300093810C5F1F4F06C06081718180E090E064
:100640000E5F1F4FA3010E940704882E8618FB2D02
:10065000FF773F2E36FE0DC0232D2E7FA22E89144C
:1006600058F434FE0BC032FC09C0832D8E7EA82EB8
:1006700005C0B82CA32C03C0B82C01C0B92CA4FE13
:100680000FC0FE01E80DF11D8081803321F49A2D09
:10069000997EA92E09C0A2FE06C0B394B39404C0EB
:1006A0008A2D867809F0B394A3FC11C0A0FE06C081
:1006B000B21488F4280C922C9B180EC0B21460F46B
:1006C000B60180E290E00E94CB03B394F7CFB2145E
:1006D00018F42B1802C0982C212CA4FE10C0B601CF
:1006E00080E390E00E94CB03A2FE17C0A1FC03C0F0
:1006F00088E790E002C088E590E0B6010CC08A2D42
:10070000867859F0A1FE02C08BE201C080E2A7FC0E
:100710008DE2B60190E00E94CB03891438F4B60153
:1007200080E390E00E94CB039A94F7CF8A94F30180
:10073000E80DF11D8081B60190E00E94CB0381108D
:10074000F5CF222009F442CEB60180E290E00E946B
:10075000CB032A94F6CFF6018681978102C08FEFF2
:100760009FEF2B96E2E10C948104FC01059061500F
:1007700070400110D8F7809590958E0F9F1F0895B7
:10078000FC016150704001900110D8F78095909560
:100790008E0F9F1F08950F931F93CF93DF93FB013D
:1007A000238121FD03C08FEF9FEF2CC022FF16C0D5
:1007B00046815781248135814217530744F4A08133
:1007C000B1819D012F5F3F4F318320838C93268120
:1007D00037812F5F3F4F3783268314C08B01EC0195
:1007E000FB010084F185E02D0995892BE1F6D80104
:1007F00016968D919C911797019617969C938E93C0
:100800001697CE01DF91CF911F910F910895FA01B4
:10081000AA27283051F1203181F1E8946F936E7F3F
:100820006E5F7F4F8F4F9F4FAF4FB1E03ED0B4E030
:100830003CD0670F781F891F9A1FA11D680F791F71
:100840008A1F911DA11D6A0F711D811D911DA11D82
:1008500020D009F468943F912AE0269F1124301992
:10086000305D3193DEF6CF010895462F4770405D2D
:100870004193B3E00FD0C9F7F6CF462F4F70405DDC
:100880004A3318F0495D31FD4052419302D0A9F737
:10089000EACFB4E0A6959795879577956795BA9531
:1008A000C9F700976105710508959B01AC010A2EF7
:1008B00006945795479537952795BA95C9F7620FCE
:1008C000731F841F951FA01D08952F923F924F9272
:1008D0005F926F927F928F929F92AF92BF92CF92D0
:1008E000DF92EF92FF920F931F93CF93DF93CDB7D9
:1008F000DEB7CA1BDB0B0FB6F894DEBF0FBECDBF51
:1009000009942A88398848885F846E847D848C8421
:100910009B84AA84B984C884DF80EE80FD800C812A
:100920001B81AA81B981CE0FD11D0FB6F894DEBF0D
:0C0930000FBECDBFED010895F894FFCF7D
:10093C003132333400320034353637001400323360
:10094C003435000F0033343536000800656E74659D
:10095C00722052464944206E6F00546F6C6C2050CC
:10096C004149440042616C3A205273202564004E88
:10097C004F5420504149442021212100494E5355C8
:10098C004646494349454E542042414C004E4F5433
:10099C0020524547495354455245442121210000DA
:00000001FF
